{
  "_format": "hh-sol-artifact-1",
  "contractName": "genNFT",
  "sourceName": "contracts/genNFT.sol",
  "abi": [
    {
      "inputs": [],
      "stateMutability": "nonpayable",
      "type": "constructor"
    },
    {
      "anonymous": false,
      "inputs": [
        {
          "indexed": true,
          "internalType": "address",
          "name": "owner",
          "type": "address"
        },
        {
          "indexed": true,
          "internalType": "address",
          "name": "approved",
          "type": "address"
        },
        {
          "indexed": true,
          "internalType": "uint256",
          "name": "tokenId",
          "type": "uint256"
        }
      ],
      "name": "Approval",
      "type": "event"
    },
    {
      "anonymous": false,
      "inputs": [
        {
          "indexed": true,
          "internalType": "address",
          "name": "owner",
          "type": "address"
        },
        {
          "indexed": true,
          "internalType": "address",
          "name": "operator",
          "type": "address"
        },
        {
          "indexed": false,
          "internalType": "bool",
          "name": "approved",
          "type": "bool"
        }
      ],
      "name": "ApprovalForAll",
      "type": "event"
    },
    {
      "anonymous": false,
      "inputs": [
        {
          "indexed": true,
          "internalType": "address",
          "name": "from",
          "type": "address"
        },
        {
          "indexed": true,
          "internalType": "address",
          "name": "to",
          "type": "address"
        },
        {
          "indexed": true,
          "internalType": "uint256",
          "name": "tokenId",
          "type": "uint256"
        }
      ],
      "name": "Transfer",
      "type": "event"
    },
    {
      "inputs": [
        {
          "internalType": "address",
          "name": "to",
          "type": "address"
        },
        {
          "internalType": "uint256",
          "name": "tokenId",
          "type": "uint256"
        }
      ],
      "name": "approve",
      "outputs": [],
      "stateMutability": "nonpayable",
      "type": "function"
    },
    {
      "inputs": [
        {
          "internalType": "address",
          "name": "owner",
          "type": "address"
        }
      ],
      "name": "balanceOf",
      "outputs": [
        {
          "internalType": "uint256",
          "name": "",
          "type": "uint256"
        }
      ],
      "stateMutability": "view",
      "type": "function"
    },
    {
      "inputs": [
        {
          "internalType": "uint256",
          "name": "tokenId",
          "type": "uint256"
        }
      ],
      "name": "getApproved",
      "outputs": [
        {
          "internalType": "address",
          "name": "",
          "type": "address"
        }
      ],
      "stateMutability": "view",
      "type": "function"
    },
    {
      "inputs": [
        {
          "internalType": "address",
          "name": "owner",
          "type": "address"
        },
        {
          "internalType": "address",
          "name": "operator",
          "type": "address"
        }
      ],
      "name": "isApprovedForAll",
      "outputs": [
        {
          "internalType": "bool",
          "name": "",
          "type": "bool"
        }
      ],
      "stateMutability": "view",
      "type": "function"
    },
    {
      "inputs": [],
      "name": "makeAPowerControllNFT",
      "outputs": [],
      "stateMutability": "nonpayable",
      "type": "function"
    },
    {
      "inputs": [],
      "name": "name",
      "outputs": [
        {
          "internalType": "string",
          "name": "",
          "type": "string"
        }
      ],
      "stateMutability": "view",
      "type": "function"
    },
    {
      "inputs": [
        {
          "internalType": "uint256",
          "name": "tokenId",
          "type": "uint256"
        }
      ],
      "name": "ownerOf",
      "outputs": [
        {
          "internalType": "address",
          "name": "",
          "type": "address"
        }
      ],
      "stateMutability": "view",
      "type": "function"
    },
    {
      "inputs": [
        {
          "internalType": "uint256",
          "name": "tokenId",
          "type": "uint256"
        }
      ],
      "name": "pickRandomFirstWord",
      "outputs": [
        {
          "internalType": "string",
          "name": "",
          "type": "string"
        }
      ],
      "stateMutability": "view",
      "type": "function"
    },
    {
      "inputs": [
        {
          "internalType": "uint256",
          "name": "tokenId",
          "type": "uint256"
        }
      ],
      "name": "pickRandomSecondWord",
      "outputs": [
        {
          "internalType": "string",
          "name": "",
          "type": "string"
        }
      ],
      "stateMutability": "view",
      "type": "function"
    },
    {
      "inputs": [
        {
          "internalType": "uint256",
          "name": "tokenId",
          "type": "uint256"
        }
      ],
      "name": "pickRandomThirdWord",
      "outputs": [
        {
          "internalType": "string",
          "name": "",
          "type": "string"
        }
      ],
      "stateMutability": "view",
      "type": "function"
    },
    {
      "inputs": [
        {
          "internalType": "address",
          "name": "from",
          "type": "address"
        },
        {
          "internalType": "address",
          "name": "to",
          "type": "address"
        },
        {
          "internalType": "uint256",
          "name": "tokenId",
          "type": "uint256"
        }
      ],
      "name": "safeTransferFrom",
      "outputs": [],
      "stateMutability": "nonpayable",
      "type": "function"
    },
    {
      "inputs": [
        {
          "internalType": "address",
          "name": "from",
          "type": "address"
        },
        {
          "internalType": "address",
          "name": "to",
          "type": "address"
        },
        {
          "internalType": "uint256",
          "name": "tokenId",
          "type": "uint256"
        },
        {
          "internalType": "bytes",
          "name": "_data",
          "type": "bytes"
        }
      ],
      "name": "safeTransferFrom",
      "outputs": [],
      "stateMutability": "nonpayable",
      "type": "function"
    },
    {
      "inputs": [
        {
          "internalType": "address",
          "name": "operator",
          "type": "address"
        },
        {
          "internalType": "bool",
          "name": "approved",
          "type": "bool"
        }
      ],
      "name": "setApprovalForAll",
      "outputs": [],
      "stateMutability": "nonpayable",
      "type": "function"
    },
    {
      "inputs": [
        {
          "internalType": "bytes4",
          "name": "interfaceId",
          "type": "bytes4"
        }
      ],
      "name": "supportsInterface",
      "outputs": [
        {
          "internalType": "bool",
          "name": "",
          "type": "bool"
        }
      ],
      "stateMutability": "view",
      "type": "function"
    },
    {
      "inputs": [],
      "name": "symbol",
      "outputs": [
        {
          "internalType": "string",
          "name": "",
          "type": "string"
        }
      ],
      "stateMutability": "view",
      "type": "function"
    },
    {
      "inputs": [
        {
          "internalType": "uint256",
          "name": "tokenId",
          "type": "uint256"
        }
      ],
      "name": "tokenURI",
      "outputs": [
        {
          "internalType": "string",
          "name": "",
          "type": "string"
        }
      ],
      "stateMutability": "view",
      "type": "function"
    },
    {
      "inputs": [
        {
          "internalType": "address",
          "name": "from",
          "type": "address"
        },
        {
          "internalType": "address",
          "name": "to",
          "type": "address"
        },
        {
          "internalType": "uint256",
          "name": "tokenId",
          "type": "uint256"
        }
      ],
      "name": "transferFrom",
      "outputs": [],
      "stateMutability": "nonpayable",
      "type": "function"
    }
  ],
  "bytecode": "0x608060405260405180610160016040528061013381526020016200433061013391396008908051906020019062000038929190620004e1565b5060405180608001604052806040518060400160405280600581526020017f506f77657200000000000000000000000000000000000000000000000000000081525081526020016040518060400160405280600681526020017f456e65726779000000000000000000000000000000000000000000000000000081525081526020016040518060400160405280600881526020017f537472656e67746800000000000000000000000000000000000000000000000081525081526020016040518060400160405280600581526020017f466f72636500000000000000000000000000000000000000000000000000000081525081525060099060046200014092919062000572565b5060405180606001604052806040518060400160405280600781526020017f6d7573742062650000000000000000000000000000000000000000000000000081525081526020016040518060400160405280600681526020017f6d6179206265000000000000000000000000000000000000000000000000000081525081526020016040518060400160405280600981526020017f73686f756c642062650000000000000000000000000000000000000000000000815250815250600a9060036200020d929190620005d9565b5060405180608001604052806040518060400160405280600881526020017f646563726561736500000000000000000000000000000000000000000000000081525081526020016040518060400160405280600881526020017f696e63726561736500000000000000000000000000000000000000000000000081525081526020016040518060400160405280600481526020017f6e756c6c0000000000000000000000000000000000000000000000000000000081525081526020016040518060400160405280600481526020017f66756c6c00000000000000000000000000000000000000000000000000000000815250815250600b9060046200031592919062000572565b503480156200032357600080fd5b506040518060400160405280601081526020017f506f776572436f6e74726f6c6c4e4654000000000000000000000000000000008152506040518060400160405280600d81526020017f504f574552434f4e54524f4c4c000000000000000000000000000000000000008152508160009080519060200190620003a8929190620004e1565b508060019080519060200190620003c1929190620004e1565b5050506200040f6040518060400160405280601881526020017f54686973206973206d79204e465420636f6e74726163742e00000000000000008152506200041560201b620011031760201c565b620007fa565b620004b5816040516024016200042c91906200070e565b6040516020818303038152906040527f41304fac000000000000000000000000000000000000000000000000000000007bffffffffffffffffffffffffffffffffffffffffffffffffffffffff19166020820180517bffffffffffffffffffffffffffffffffffffffffffffffffffffffff8381831617835250505050620004b860201b60201c565b50565b60008151905060006a636f6e736f6c652e6c6f679050602083016000808483855afa5050505050565b828054620004ef9062000784565b90600052602060002090601f0160209004810192826200051357600085556200055f565b82601f106200052e57805160ff19168380011785556200055f565b828001600101855582156200055f579182015b828111156200055e57825182559160200191906001019062000541565b5b5090506200056e919062000640565b5090565b828054828255906000526020600020908101928215620005c6579160200282015b82811115620005c5578251829080519060200190620005b4929190620004e1565b509160200191906001019062000593565b5b509050620005d591906200065f565b5090565b8280548282559060005260206000209081019282156200062d579160200282015b828111156200062c5782518290805190602001906200061b929190620004e1565b5091602001919060010190620005fa565b5b5090506200063c91906200065f565b5090565b5b808211156200065b57600081600090555060010162000641565b5090565b5b8082111562000683576000818162000679919062000687565b5060010162000660565b5090565b508054620006959062000784565b6000825580601f10620006a95750620006ca565b601f016020900490600052602060002090810190620006c9919062000640565b5b50565b6000620006da8262000732565b620006e681856200073d565b9350620006f88185602086016200074e565b6200070381620007e9565b840191505092915050565b600060208201905081810360008301526200072a8184620006cd565b905092915050565b600081519050919050565b600082825260208201905092915050565b60005b838110156200076e57808201518184015260208101905062000751565b838111156200077e576000848401525b50505050565b600060028204905060018216806200079d57607f821691505b60208210811415620007b457620007b3620007ba565b5b50919050565b7f4e487b7100000000000000000000000000000000000000000000000000000000600052602260045260246000fd5b6000601f19601f8301169050919050565b613b26806200080a6000396000f3fe608060405234801561001057600080fd5b506004361061010b5760003560e01c806363c89f83116100a2578063b187301f11610071578063b187301f146102b6578063b88d4fde146102e6578063c575757a14610302578063c87b56dd14610332578063e985e9c5146103625761010b565b806363c89f831461024257806370a082311461024c57806395d89b411461027c578063a22cb4651461029a5761010b565b806323b872dd116100de57806323b872dd146101aa5780632de38d68146101c657806342842e0e146101f65780636352211e146102125761010b565b806301ffc9a71461011057806306fdde0314610140578063081812fc1461015e578063095ea7b31461018e575b600080fd5b61012a600480360381019061012591906125cb565b610392565b6040516101379190612ce5565b60405180910390f35b610148610474565b6040516101559190612d00565b60405180910390f35b6101786004803603810190610173919061261d565b610506565b6040516101859190612c7e565b60405180910390f35b6101a860048036038101906101a3919061258f565b61058b565b005b6101c460048036038101906101bf9190612489565b6106a3565b005b6101e060048036038101906101db919061261d565b610703565b6040516101ed9190612d00565b60405180910390f35b610210600480360381019061020b9190612489565b61089f565b005b61022c6004803603810190610227919061261d565b6108bf565b6040516102399190612c7e565b60405180910390f35b61024a610971565b005b61026660048036038101906102619190612424565b610b1f565b6040516102739190612f90565b60405180910390f35b610284610bd7565b6040516102919190612d00565b60405180910390f35b6102b460048036038101906102af9190612553565b610c69565b005b6102d060048036038101906102cb919061261d565b610c7f565b6040516102dd9190612d00565b60405180910390f35b61030060048036038101906102fb91906124d8565b610d9d565b005b61031c6004803603810190610317919061261d565b610dff565b6040516103299190612d00565b60405180910390f35b61034c6004803603810190610347919061261d565b610f1d565b6040516103599190612d00565b60405180910390f35b61037c6004803603810190610377919061244d565b61106f565b6040516103899190612ce5565b60405180910390f35b60007f80ac58cd000000000000000000000000000000000000000000000000000000007bffffffffffffffffffffffffffffffffffffffffffffffffffffffff1916827bffffffffffffffffffffffffffffffffffffffffffffffffffffffff1916148061045d57507f5b5e139f000000000000000000000000000000000000000000000000000000007bffffffffffffffffffffffffffffffffffffffffffffffffffffffff1916827bffffffffffffffffffffffffffffffffffffffffffffffffffffffff1916145b8061046d575061046c8261119c565b5b9050919050565b60606000805461048390613224565b80601f01602080910402602001604051908101604052809291908181526020018280546104af90613224565b80156104fc5780601f106104d1576101008083540402835291602001916104fc565b820191906000526020600020905b8154815290600101906020018083116104df57829003601f168201915b5050505050905090565b600061051182611206565b610550576040517f08c379a000000000000000000000000000000000000000000000000000000000815260040161054790612f10565b60405180910390fd5b6004600083815260200190815260200160002060009054906101000a900473ffffffffffffffffffffffffffffffffffffffff169050919050565b6000610596826108bf565b90508073ffffffffffffffffffffffffffffffffffffffff168373ffffffffffffffffffffffffffffffffffffffff161415610607576040517f08c379a00000000000000000000000000000000000000000000000000000000081526004016105fe90612f50565b60405180910390fd5b8073ffffffffffffffffffffffffffffffffffffffff16610626611272565b73ffffffffffffffffffffffffffffffffffffffff16148061065557506106548161064f611272565b61106f565b5b610694576040517f08c379a000000000000000000000000000000000000000000000000000000000815260040161068b90612e50565b60405180910390fd5b61069e838361127a565b505050565b6106b46106ae611272565b82611333565b6106f3576040517f08c379a00000000000000000000000000000000000000000000000000000000081526004016106ea90612f70565b60405180910390fd5b6106fe838383611411565b505050565b6060600061073761071384611678565b6040516020016107239190612c3a565b604051602081830303815290604052611825565b90506107786040518060400160405280600b81526020017f72616e6420736565643a2000000000000000000000000000000000000000000081525082611858565b6009805490508161078991906132d0565b90506107ca6040518060400160405280601181526020017f72616e6420666972737420776f72643a2000000000000000000000000000000081525082611858565b60098181548110610804577f4e487b7100000000000000000000000000000000000000000000000000000000600052603260045260246000fd5b90600052602060002001805461081990613224565b80601f016020809104026020016040519081016040528092919081815260200182805461084590613224565b80156108925780601f1061086757610100808354040283529160200191610892565b820191906000526020600020905b81548152906001019060200180831161087557829003601f168201915b5050505050915050919050565b6108ba83838360405180602001604052806000815250610d9d565b505050565b6000806002600084815260200190815260200160002060009054906101000a900473ffffffffffffffffffffffffffffffffffffffff169050600073ffffffffffffffffffffffffffffffffffffffff168173ffffffffffffffffffffffffffffffffffffffff161415610968576040517f08c379a000000000000000000000000000000000000000000000000000000000815260040161095f90612e90565b60405180910390fd5b80915050919050565b600061097d60076118f4565b9050600061098a82610703565b9050600061099783610c7f565b905060006109a484610dff565b905060008383836040516020016109bd93929190612b3b565b604051602081830303815290604052905060006008826040516020016109e4929190612b82565b6040516020818303038152906040529050610a336040518060400160405280601581526020017f0a2d2d2d2d2d2d2d2d2d2d2d2d2d2d2d2d2d2d2d2d0000000000000000000000815250611103565b610a3c81611103565b610a7a6040518060400160405280601581526020017f2d2d2d2d2d2d2d2d2d2d2d2d2d2d2d2d2d2d2d2d0a0000000000000000000000815250611103565b6000610aae83610a8984611902565b604051602001610a9a929190612bf5565b604051602081830303815290604052611902565b9050600081604051602001610ac39190612c5c565b6040516020818303038152906040529050610ade3389611ac0565b610ae88882611ade565b610b0b604051806060016040528060258152602001613a8c602591398933611b52565b610b156007611bf1565b5050505050505050565b60008073ffffffffffffffffffffffffffffffffffffffff168273ffffffffffffffffffffffffffffffffffffffff161415610b90576040517f08c379a0000000000000000000000000000000000000000000000000000000008152600401610b8790612e70565b60405180910390fd5b600360008373ffffffffffffffffffffffffffffffffffffffff1673ffffffffffffffffffffffffffffffffffffffff168152602001908152602001600020549050919050565b606060018054610be690613224565b80601f0160208091040260200160405190810160405280929190818152602001828054610c1290613224565b8015610c5f5780601f10610c3457610100808354040283529160200191610c5f565b820191906000526020600020905b815481529060010190602001808311610c4257829003601f168201915b5050505050905090565b610c7b610c74611272565b8383611c07565b5050565b60606000610cb3610c8f84611678565b604051602001610c9f9190612bd3565b604051602081830303815290604052611825565b9050600a8054905081610cc691906132d0565b9050600a8181548110610d02577f4e487b7100000000000000000000000000000000000000000000000000000000600052603260045260246000fd5b906000526020600020018054610d1790613224565b80601f0160208091040260200160405190810160405280929190818152602001828054610d4390613224565b8015610d905780601f10610d6557610100808354040283529160200191610d90565b820191906000526020600020905b815481529060010190602001808311610d7357829003601f168201915b5050505050915050919050565b610dae610da8611272565b83611333565b610ded576040517f08c379a0000000000000000000000000000000000000000000000000000000008152600401610de490612f70565b60405180910390fd5b610df984848484611d74565b50505050565b60606000610e33610e0f84611678565b604051602001610e1f9190612bb1565b604051602081830303815290604052611825565b9050600b8054905081610e4691906132d0565b9050600b8181548110610e82577f4e487b7100000000000000000000000000000000000000000000000000000000600052603260045260246000fd5b906000526020600020018054610e9790613224565b80601f0160208091040260200160405190810160405280929190818152602001828054610ec390613224565b8015610f105780601f10610ee557610100808354040283529160200191610f10565b820191906000526020600020905b815481529060010190602001808311610ef357829003601f168201915b5050505050915050919050565b6060610f2882611206565b610f67576040517f08c379a0000000000000000000000000000000000000000000000000000000008152600401610f5e90612ef0565b60405180910390fd5b6000600660008481526020019081526020016000208054610f8790613224565b80601f0160208091040260200160405190810160405280929190818152602001828054610fb390613224565b80156110005780601f10610fd557610100808354040283529160200191611000565b820191906000526020600020905b815481529060010190602001808311610fe357829003601f168201915b505050505090506000611011611dd0565b905060008151141561102757819250505061106a565b60008251111561105c578082604051602001611044929190612b17565b6040516020818303038152906040529250505061106a565b61106584611de7565b925050505b919050565b6000600560008473ffffffffffffffffffffffffffffffffffffffff1673ffffffffffffffffffffffffffffffffffffffff16815260200190815260200160002060008373ffffffffffffffffffffffffffffffffffffffff1673ffffffffffffffffffffffffffffffffffffffff16815260200190815260200160002060009054906101000a900460ff16905092915050565b611199816040516024016111179190612d00565b6040516020818303038152906040527f41304fac000000000000000000000000000000000000000000000000000000007bffffffffffffffffffffffffffffffffffffffffffffffffffffffff19166020820180517bffffffffffffffffffffffffffffffffffffffffffffffffffffffff8381831617835250505050611e8e565b50565b60007f01ffc9a7000000000000000000000000000000000000000000000000000000007bffffffffffffffffffffffffffffffffffffffffffffffffffffffff1916827bffffffffffffffffffffffffffffffffffffffffffffffffffffffff1916149050919050565b60008073ffffffffffffffffffffffffffffffffffffffff166002600084815260200190815260200160002060009054906101000a900473ffffffffffffffffffffffffffffffffffffffff1673ffffffffffffffffffffffffffffffffffffffff1614159050919050565b600033905090565b816004600083815260200190815260200160002060006101000a81548173ffffffffffffffffffffffffffffffffffffffff021916908373ffffffffffffffffffffffffffffffffffffffff160217905550808273ffffffffffffffffffffffffffffffffffffffff166112ed836108bf565b73ffffffffffffffffffffffffffffffffffffffff167f8c5be1e5ebec7d5bd14f71427d1e84f3dd0314c0f7b2291e5b200ac8c7c3b92560405160405180910390a45050565b600061133e82611206565b61137d576040517f08c379a000000000000000000000000000000000000000000000000000000000815260040161137490612e30565b60405180910390fd5b6000611388836108bf565b90508073ffffffffffffffffffffffffffffffffffffffff168473ffffffffffffffffffffffffffffffffffffffff1614806113ca57506113c9818561106f565b5b8061140857508373ffffffffffffffffffffffffffffffffffffffff166113f084610506565b73ffffffffffffffffffffffffffffffffffffffff16145b91505092915050565b8273ffffffffffffffffffffffffffffffffffffffff16611431826108bf565b73ffffffffffffffffffffffffffffffffffffffff1614611487576040517f08c379a000000000000000000000000000000000000000000000000000000000815260040161147e90612db0565b60405180910390fd5b600073ffffffffffffffffffffffffffffffffffffffff168273ffffffffffffffffffffffffffffffffffffffff1614156114f7576040517f08c379a00000000000000000000000000000000000000000000000000000000081526004016114ee90612df0565b60405180910390fd5b611502838383611eb7565b61150d60008261127a565b6001600360008573ffffffffffffffffffffffffffffffffffffffff1673ffffffffffffffffffffffffffffffffffffffff168152602001908152602001600020600082825461155d919061313a565b925050819055506001600360008473ffffffffffffffffffffffffffffffffffffffff1673ffffffffffffffffffffffffffffffffffffffff16815260200190815260200160002060008282546115b49190613059565b92505081905550816002600083815260200190815260200160002060006101000a81548173ffffffffffffffffffffffffffffffffffffffff021916908373ffffffffffffffffffffffffffffffffffffffff160217905550808273ffffffffffffffffffffffffffffffffffffffff168473ffffffffffffffffffffffffffffffffffffffff167fddf252ad1be2c89b69c2b068fc378daa952ba7f163c4a11628f55a4df523b3ef60405160405180910390a4611673838383611ebc565b505050565b606060008214156116c0576040518060400160405280600181526020017f30000000000000000000000000000000000000000000000000000000000000008152509050611820565b600082905060005b600082146116f25780806116db90613287565b915050600a826116eb91906130af565b91506116c8565b60008167ffffffffffffffff811115611734577f4e487b7100000000000000000000000000000000000000000000000000000000600052604160045260246000fd5b6040519080825280601f01601f1916602001820160405280156117665781602001600182028036833780820191505090505b5090505b600085146118195760018261177f919061313a565b9150600a8561178e91906132d0565b603061179a9190613059565b60f81b8183815181106117d6577f4e487b7100000000000000000000000000000000000000000000000000000000600052603260045260246000fd5b60200101907effffffffffffffffffffffffffffffffffffffffffffffffffffffffffffff1916908160001a905350600a8561181291906130af565b945061176a565b8093505050505b919050565b6000816040516020016118389190612b00565b6040516020818303038152906040528051906020012060001c9050919050565b6118f0828260405160240161186e929190612d22565b6040516020818303038152906040527f9710a9d0000000000000000000000000000000000000000000000000000000007bffffffffffffffffffffffffffffffffffffffffffffffffffffffff19166020820180517bffffffffffffffffffffffffffffffffffffffffffffffffffffffff8381831617835250505050611e8e565b5050565b600081600001549050919050565b6060600082519050600081141561192b5760405180602001604052806000815250915050611abb565b6000600360028361193c9190613059565b61194691906130af565b600461195291906130e0565b905060006020826119639190613059565b67ffffffffffffffff8111156119a2577f4e487b7100000000000000000000000000000000000000000000000000000000600052604160045260246000fd5b6040519080825280601f01601f1916602001820160405280156119d45781602001600182028036833780820191505090505b5090506000604051806060016040528060408152602001613ab1604091399050600181016020830160005b86811015611a785760038101905062ffffff818a015116603f8160121c168401518060081b905060ff603f83600c1c1686015116810190508060081b905060ff603f8360061c1686015116810190508060081b905060ff603f831686015116810190508060e01b905080845260048401935050506119ff565b506003860660018114611a925760028114611aa257611aad565b613d3d60f01b6002830352611aad565b603d60f81b60018303525b508484525050819450505050505b919050565b611ada828260405180602001604052806000815250611ec1565b5050565b611ae782611206565b611b26576040517f08c379a0000000000000000000000000000000000000000000000000000000008152600401611b1d90612eb0565b60405180910390fd5b80600660008481526020019081526020016000209080519060200190611b4d9291906122b0565b505050565b611bec838383604051602401611b6a93929190612d52565b6040516020818303038152906040527fe3849f79000000000000000000000000000000000000000000000000000000007bffffffffffffffffffffffffffffffffffffffffffffffffffffffff19166020820180517bffffffffffffffffffffffffffffffffffffffffffffffffffffffff8381831617835250505050611e8e565b505050565b6001816000016000828254019250508190555050565b8173ffffffffffffffffffffffffffffffffffffffff168373ffffffffffffffffffffffffffffffffffffffff161415611c76576040517f08c379a0000000000000000000000000000000000000000000000000000000008152600401611c6d90612e10565b60405180910390fd5b80600560008573ffffffffffffffffffffffffffffffffffffffff1673ffffffffffffffffffffffffffffffffffffffff16815260200190815260200160002060008473ffffffffffffffffffffffffffffffffffffffff1673ffffffffffffffffffffffffffffffffffffffff16815260200190815260200160002060006101000a81548160ff0219169083151502179055508173ffffffffffffffffffffffffffffffffffffffff168373ffffffffffffffffffffffffffffffffffffffff167f17307eab39ab6107e8899845ad3d59bd9653f200f220920489ca2b5937696c3183604051611d679190612ce5565b60405180910390a3505050565b611d7f848484611411565b611d8b84848484611f1c565b611dca576040517f08c379a0000000000000000000000000000000000000000000000000000000008152600401611dc190612d90565b60405180910390fd5b50505050565b606060405180602001604052806000815250905090565b6060611df282611206565b611e31576040517f08c379a0000000000000000000000000000000000000000000000000000000008152600401611e2890612f30565b60405180910390fd5b6000611e3b611dd0565b90506000815111611e5b5760405180602001604052806000815250611e86565b80611e6584611678565b604051602001611e76929190612b17565b6040516020818303038152906040525b915050919050565b60008151905060006a636f6e736f6c652e6c6f679050602083016000808483855afa5050505050565b505050565b505050565b611ecb83836120b3565b611ed86000848484611f1c565b611f17576040517f08c379a0000000000000000000000000000000000000000000000000000000008152600401611f0e90612d90565b60405180910390fd5b505050565b6000611f3d8473ffffffffffffffffffffffffffffffffffffffff1661228d565b156120a6578373ffffffffffffffffffffffffffffffffffffffff1663150b7a02611f66611272565b8786866040518563ffffffff1660e01b8152600401611f889493929190612c99565b602060405180830381600087803b158015611fa257600080fd5b505af1925050508015611fd357506040513d601f19601f82011682018060405250810190611fd091906125f4565b60015b612056573d8060008114612003576040519150601f19603f3d011682016040523d82523d6000602084013e612008565b606091505b5060008151141561204e576040517f08c379a000000000000000000000000000000000000000000000000000000000815260040161204590612d90565b60405180910390fd5b805181602001fd5b63150b7a0260e01b7bffffffffffffffffffffffffffffffffffffffffffffffffffffffff1916817bffffffffffffffffffffffffffffffffffffffffffffffffffffffff1916149150506120ab565b600190505b949350505050565b600073ffffffffffffffffffffffffffffffffffffffff168273ffffffffffffffffffffffffffffffffffffffff161415612123576040517f08c379a000000000000000000000000000000000000000000000000000000000815260040161211a90612ed0565b60405180910390fd5b61212c81611206565b1561216c576040517f08c379a000000000000000000000000000000000000000000000000000000000815260040161216390612dd0565b60405180910390fd5b61217860008383611eb7565b6001600360008473ffffffffffffffffffffffffffffffffffffffff1673ffffffffffffffffffffffffffffffffffffffff16815260200190815260200160002060008282546121c89190613059565b92505081905550816002600083815260200190815260200160002060006101000a81548173ffffffffffffffffffffffffffffffffffffffff021916908373ffffffffffffffffffffffffffffffffffffffff160217905550808273ffffffffffffffffffffffffffffffffffffffff16600073ffffffffffffffffffffffffffffffffffffffff167fddf252ad1be2c89b69c2b068fc378daa952ba7f163c4a11628f55a4df523b3ef60405160405180910390a461228960008383611ebc565b5050565b6000808273ffffffffffffffffffffffffffffffffffffffff163b119050919050565b8280546122bc90613224565b90600052602060002090601f0160209004810192826122de5760008555612325565b82601f106122f757805160ff1916838001178555612325565b82800160010185558215612325579182015b82811115612324578251825591602001919060010190612309565b5b5090506123329190612336565b5090565b5b8082111561234f576000816000905550600101612337565b5090565b600061236661236184612fd0565b612fab565b90508281526020810184848401111561237e57600080fd5b6123898482856131e2565b509392505050565b6000813590506123a081613a2f565b92915050565b6000813590506123b581613a46565b92915050565b6000813590506123ca81613a5d565b92915050565b6000815190506123df81613a5d565b92915050565b600082601f8301126123f657600080fd5b8135612406848260208601612353565b91505092915050565b60008135905061241e81613a74565b92915050565b60006020828403121561243657600080fd5b600061244484828501612391565b91505092915050565b6000806040838503121561246057600080fd5b600061246e85828601612391565b925050602061247f85828601612391565b9150509250929050565b60008060006060848603121561249e57600080fd5b60006124ac86828701612391565b93505060206124bd86828701612391565b92505060406124ce8682870161240f565b9150509250925092565b600080600080608085870312156124ee57600080fd5b60006124fc87828801612391565b945050602061250d87828801612391565b935050604061251e8782880161240f565b925050606085013567ffffffffffffffff81111561253b57600080fd5b612547878288016123e5565b91505092959194509250565b6000806040838503121561256657600080fd5b600061257485828601612391565b9250506020612585858286016123a6565b9150509250929050565b600080604083850312156125a257600080fd5b60006125b085828601612391565b92505060206125c18582860161240f565b9150509250929050565b6000602082840312156125dd57600080fd5b60006125eb848285016123bb565b91505092915050565b60006020828403121561260657600080fd5b6000612614848285016123d0565b91505092915050565b60006020828403121561262f57600080fd5b600061263d8482850161240f565b91505092915050565b61264f8161316e565b82525050565b61265e81613180565b82525050565b600061266f82613016565b612679818561302c565b93506126898185602086016131f1565b612692816133bd565b840191505092915050565b60006126a882613021565b6126b2818561303d565b93506126c28185602086016131f1565b6126cb816133bd565b840191505092915050565b60006126e182613021565b6126eb818561304e565b93506126fb8185602086016131f1565b80840191505092915050565b6000815461271481613224565b61271e818661304e565b94506001821660008114612739576001811461274a5761277d565b60ff1983168652818601935061277d565b61275385613001565b60005b8381101561277557815481890152600182019150602081019050612756565b838801955050505b50505092915050565b600061279360328361303d565b915061279e826133ce565b604082019050919050565b60006127b660258361303d565b91506127c18261341d565b604082019050919050565b60006127d9601c8361303d565b91506127e48261346c565b602082019050919050565b60006127fc600a8361304e565b915061280782613495565b600a82019050919050565b600061281f60248361303d565b915061282a826134be565b604082019050919050565b600061284260198361303d565b915061284d8261350d565b602082019050919050565b6000612865600b8361304e565b915061287082613536565b600b82019050919050565b6000612888602c8361303d565b91506128938261355f565b604082019050919050565b60006128ab600d8361304e565b91506128b6826135ae565b600d82019050919050565b60006128ce60018361304e565b91506128d9826135d7565b600182019050919050565b60006128f160388361303d565b91506128fc82613600565b604082019050919050565b6000612914602a8361303d565b915061291f8261364f565b604082019050919050565b600061293760298361303d565b91506129428261369e565b604082019050919050565b600061295a602e8361303d565b9150612965826136ed565b604082019050919050565b600061297d60028361304e565b91506129888261373c565b600282019050919050565b60006129a060208361303d565b91506129ab82613765565b602082019050919050565b60006129c360318361303d565b91506129ce8261378e565b604082019050919050565b60006129e6602c8361303d565b91506129f1826137dd565b604082019050919050565b6000612a09602f8361303d565b9150612a148261382c565b604082019050919050565b6000612a2c600a8361304e565b9150612a378261387b565b600a82019050919050565b6000612a4f60698361304e565b9150612a5a826138a4565b606982019050919050565b6000612a7260218361303d565b9150612a7d8261393f565b604082019050919050565b6000612a95600a8361304e565b9150612aa08261398e565b600a82019050919050565b6000612ab8601d8361304e565b9150612ac3826139b7565b601d82019050919050565b6000612adb60318361303d565b9150612ae6826139e0565b604082019050919050565b612afa816131d8565b82525050565b6000612b0c82846126d6565b915081905092915050565b6000612b2382856126d6565b9150612b2f82846126d6565b91508190509392505050565b6000612b4782866126d6565b9150612b52826128c1565b9150612b5e82856126d6565b9150612b69826128c1565b9150612b7582846126d6565b9150819050949350505050565b6000612b8e8285612707565b9150612b9a82846126d6565b9150612ba58261289e565b91508190509392505050565b6000612bbc826127ef565b9150612bc882846126d6565b915081905092915050565b6000612bde82612858565b9150612bea82846126d6565b915081905092915050565b6000612c0082612a1f565b9150612c0c82856126d6565b9150612c1782612a42565b9150612c2382846126d6565b9150612c2e82612970565b91508190509392505050565b6000612c4582612a88565b9150612c5182846126d6565b915081905092915050565b6000612c6782612aab565b9150612c7382846126d6565b915081905092915050565b6000602082019050612c936000830184612646565b92915050565b6000608082019050612cae6000830187612646565b612cbb6020830186612646565b612cc86040830185612af1565b8181036060830152612cda8184612664565b905095945050505050565b6000602082019050612cfa6000830184612655565b92915050565b60006020820190508181036000830152612d1a818461269d565b905092915050565b60006040820190508181036000830152612d3c818561269d565b9050612d4b6020830184612af1565b9392505050565b60006060820190508181036000830152612d6c818661269d565b9050612d7b6020830185612af1565b612d886040830184612646565b949350505050565b60006020820190508181036000830152612da981612786565b9050919050565b60006020820190508181036000830152612dc9816127a9565b9050919050565b60006020820190508181036000830152612de9816127cc565b9050919050565b60006020820190508181036000830152612e0981612812565b9050919050565b60006020820190508181036000830152612e2981612835565b9050919050565b60006020820190508181036000830152612e498161287b565b9050919050565b60006020820190508181036000830152612e69816128e4565b9050919050565b60006020820190508181036000830152612e8981612907565b9050919050565b60006020820190508181036000830152612ea98161292a565b9050919050565b60006020820190508181036000830152612ec98161294d565b9050919050565b60006020820190508181036000830152612ee981612993565b9050919050565b60006020820190508181036000830152612f09816129b6565b9050919050565b60006020820190508181036000830152612f29816129d9565b9050919050565b60006020820190508181036000830152612f49816129fc565b9050919050565b60006020820190508181036000830152612f6981612a65565b9050919050565b60006020820190508181036000830152612f8981612ace565b9050919050565b6000602082019050612fa56000830184612af1565b92915050565b6000612fb5612fc6565b9050612fc18282613256565b919050565b6000604051905090565b600067ffffffffffffffff821115612feb57612fea61338e565b5b612ff4826133bd565b9050602081019050919050565b60008190508160005260206000209050919050565b600081519050919050565b600081519050919050565b600082825260208201905092915050565b600082825260208201905092915050565b600081905092915050565b6000613064826131d8565b915061306f836131d8565b9250827fffffffffffffffffffffffffffffffffffffffffffffffffffffffffffffffff038211156130a4576130a3613301565b5b828201905092915050565b60006130ba826131d8565b91506130c5836131d8565b9250826130d5576130d4613330565b5b828204905092915050565b60006130eb826131d8565b91506130f6836131d8565b9250817fffffffffffffffffffffffffffffffffffffffffffffffffffffffffffffffff048311821515161561312f5761312e613301565b5b828202905092915050565b6000613145826131d8565b9150613150836131d8565b92508282101561316357613162613301565b5b828203905092915050565b6000613179826131b8565b9050919050565b60008115159050919050565b60007fffffffff0000000000000000000000000000000000000000000000000000000082169050919050565b600073ffffffffffffffffffffffffffffffffffffffff82169050919050565b6000819050919050565b82818337600083830152505050565b60005b8381101561320f5780820151818401526020810190506131f4565b8381111561321e576000848401525b50505050565b6000600282049050600182168061323c57607f821691505b602082108114156132505761324f61335f565b5b50919050565b61325f826133bd565b810181811067ffffffffffffffff8211171561327e5761327d61338e565b5b80604052505050565b6000613292826131d8565b91507fffffffffffffffffffffffffffffffffffffffffffffffffffffffffffffffff8214156132c5576132c4613301565b5b600182019050919050565b60006132db826131d8565b91506132e6836131d8565b9250826132f6576132f5613330565b5b828206905092915050565b7f4e487b7100000000000000000000000000000000000000000000000000000000600052601160045260246000fd5b7f4e487b7100000000000000000000000000000000000000000000000000000000600052601260045260246000fd5b7f4e487b7100000000000000000000000000000000000000000000000000000000600052602260045260246000fd5b7f4e487b7100000000000000000000000000000000000000000000000000000000600052604160045260246000fd5b6000601f19601f8301169050919050565b7f4552433732313a207472616e7366657220746f206e6f6e20455243373231526560008201527f63656976657220696d706c656d656e7465720000000000000000000000000000602082015250565b7f4552433732313a207472616e736665722066726f6d20696e636f72726563742060008201527f6f776e6572000000000000000000000000000000000000000000000000000000602082015250565b7f4552433732313a20746f6b656e20616c7265616479206d696e74656400000000600082015250565b7f54484952445f574f524400000000000000000000000000000000000000000000600082015250565b7f4552433732313a207472616e7366657220746f20746865207a65726f2061646460008201527f7265737300000000000000000000000000000000000000000000000000000000602082015250565b7f4552433732313a20617070726f766520746f2063616c6c657200000000000000600082015250565b7f5345434f4e445f574f5244000000000000000000000000000000000000000000600082015250565b7f4552433732313a206f70657261746f7220717565727920666f72206e6f6e657860008201527f697374656e7420746f6b656e0000000000000000000000000000000000000000602082015250565b7f3c2f746578743e3c2f7376673e00000000000000000000000000000000000000600082015250565b7f2000000000000000000000000000000000000000000000000000000000000000600082015250565b7f4552433732313a20617070726f76652063616c6c6572206973206e6f74206f7760008201527f6e6572206e6f7220617070726f76656420666f7220616c6c0000000000000000602082015250565b7f4552433732313a2062616c616e636520717565727920666f7220746865207a6560008201527f726f206164647265737300000000000000000000000000000000000000000000602082015250565b7f4552433732313a206f776e657220717565727920666f72206e6f6e657869737460008201527f656e7420746f6b656e0000000000000000000000000000000000000000000000602082015250565b7f45524337323155524953746f726167653a2055524920736574206f66206e6f6e60008201527f6578697374656e7420746f6b656e000000000000000000000000000000000000602082015250565b7f227d000000000000000000000000000000000000000000000000000000000000600082015250565b7f4552433732313a206d696e7420746f20746865207a65726f2061646472657373600082015250565b7f45524337323155524953746f726167653a2055524920717565727920666f722060008201527f6e6f6e6578697374656e7420746f6b656e000000000000000000000000000000602082015250565b7f4552433732313a20617070726f76656420717565727920666f72206e6f6e657860008201527f697374656e7420746f6b656e0000000000000000000000000000000000000000602082015250565b7f4552433732314d657461646174613a2055524920717565727920666f72206e6f60008201527f6e6578697374656e7420746f6b656e0000000000000000000000000000000000602082015250565b7f7b226e616d65223a202200000000000000000000000000000000000000000000600082015250565b7f222c20226465736372697074696f6e223a20224120686967686c79206163636c60008201527f61696d656420636f6c6c656374696f6e206f6620506f776572436f6e74726f6c60208201527f6c2e222c2022696d616765223a2022646174613a696d6167652f7376672b786d60408201527f6c3b6261736536342c0000000000000000000000000000000000000000000000606082015250565b7f4552433732313a20617070726f76616c20746f2063757272656e74206f776e6560008201527f7200000000000000000000000000000000000000000000000000000000000000602082015250565b7f46495253545f574f524400000000000000000000000000000000000000000000600082015250565b7f646174613a6170706c69636174696f6e2f6a736f6e3b6261736536342c000000600082015250565b7f4552433732313a207472616e736665722063616c6c6572206973206e6f74206f60008201527f776e6572206e6f7220617070726f766564000000000000000000000000000000602082015250565b613a388161316e565b8114613a4357600080fd5b50565b613a4f81613180565b8114613a5a57600080fd5b50565b613a668161318c565b8114613a7157600080fd5b50565b613a7d816131d8565b8114613a8857600080fd5b5056fe416e204e465420772f20494420257320686173206265656e206d696e74656420746f2025734142434445464748494a4b4c4d4e4f505152535455565758595a6162636465666768696a6b6c6d6e6f707172737475767778797a303132333435363738392b2fa2646970667358221220f9e0fc8a3cd749fc9116fe296e8df0b5a5931da2bd6dcd60b5c7f5e3f401ed5e64736f6c634300080400333c73766720786d6c6e733d27687474703a2f2f7777772e77332e6f72672f323030302f73766727207072657365727665417370656374526174696f3d27784d696e594d696e206d656574272076696577426f783d273020302033353020333530273e3c7374796c653e2e62617365207b2066696c6c3a20236462383530643b20666f6e742d66616d696c793a2073657269663b20666f6e742d73697a653a20323570783b207d3c2f7374796c653e3c726563742077696474683d273130302527206865696768743d2731303025272066696c6c3d272332303263343027202f3e3c7465787420783d273530252720793d273530252720636c6173733d27626173652720646f6d696e616e742d626173656c696e653d276d6964646c652720746578742d616e63686f723d276d6964646c65273e",
  "linkReferences": {},
  "deployedLinkReferences": {}
}