{
  "_format": "hh-sol-artifact-1",
  "contractName": "genNFT",
  "sourceName": "contracts/genNFT.sol",
  "abi": [
    {
      "inputs": [],
      "stateMutability": "nonpayable",
      "type": "constructor"
    },
    {
      "anonymous": false,
      "inputs": [
        {
          "indexed": true,
          "internalType": "address",
          "name": "owner",
          "type": "address"
        },
        {
          "indexed": true,
          "internalType": "address",
          "name": "approved",
          "type": "address"
        },
        {
          "indexed": true,
          "internalType": "uint256",
          "name": "tokenId",
          "type": "uint256"
        }
      ],
      "name": "Approval",
      "type": "event"
    },
    {
      "anonymous": false,
      "inputs": [
        {
          "indexed": true,
          "internalType": "address",
          "name": "owner",
          "type": "address"
        },
        {
          "indexed": true,
          "internalType": "address",
          "name": "operator",
          "type": "address"
        },
        {
          "indexed": false,
          "internalType": "bool",
          "name": "approved",
          "type": "bool"
        }
      ],
      "name": "ApprovalForAll",
      "type": "event"
    },
    {
      "anonymous": false,
      "inputs": [
        {
          "indexed": false,
          "internalType": "address",
          "name": "sender",
          "type": "address"
        },
        {
          "indexed": false,
          "internalType": "uint256",
          "name": "tokenId",
          "type": "uint256"
        }
      ],
      "name": "NewPowerControllNFTMinted",
      "type": "event"
    },
    {
      "anonymous": false,
      "inputs": [
        {
          "indexed": true,
          "internalType": "address",
          "name": "from",
          "type": "address"
        },
        {
          "indexed": true,
          "internalType": "address",
          "name": "to",
          "type": "address"
        },
        {
          "indexed": true,
          "internalType": "uint256",
          "name": "tokenId",
          "type": "uint256"
        }
      ],
      "name": "Transfer",
      "type": "event"
    },
    {
      "inputs": [
        {
          "internalType": "address",
          "name": "to",
          "type": "address"
        },
        {
          "internalType": "uint256",
          "name": "tokenId",
          "type": "uint256"
        }
      ],
      "name": "approve",
      "outputs": [],
      "stateMutability": "nonpayable",
      "type": "function"
    },
    {
      "inputs": [
        {
          "internalType": "address",
          "name": "owner",
          "type": "address"
        }
      ],
      "name": "balanceOf",
      "outputs": [
        {
          "internalType": "uint256",
          "name": "",
          "type": "uint256"
        }
      ],
      "stateMutability": "view",
      "type": "function"
    },
    {
      "inputs": [
        {
          "internalType": "uint256",
          "name": "tokenId",
          "type": "uint256"
        }
      ],
      "name": "getApproved",
      "outputs": [
        {
          "internalType": "address",
          "name": "",
          "type": "address"
        }
      ],
      "stateMutability": "view",
      "type": "function"
    },
    {
      "inputs": [
        {
          "internalType": "address",
          "name": "owner",
          "type": "address"
        },
        {
          "internalType": "address",
          "name": "operator",
          "type": "address"
        }
      ],
      "name": "isApprovedForAll",
      "outputs": [
        {
          "internalType": "bool",
          "name": "",
          "type": "bool"
        }
      ],
      "stateMutability": "view",
      "type": "function"
    },
    {
      "inputs": [],
      "name": "makeAPowerControllNFT",
      "outputs": [],
      "stateMutability": "nonpayable",
      "type": "function"
    },
    {
      "inputs": [],
      "name": "name",
      "outputs": [
        {
          "internalType": "string",
          "name": "",
          "type": "string"
        }
      ],
      "stateMutability": "view",
      "type": "function"
    },
    {
      "inputs": [
        {
          "internalType": "uint256",
          "name": "tokenId",
          "type": "uint256"
        }
      ],
      "name": "ownerOf",
      "outputs": [
        {
          "internalType": "address",
          "name": "",
          "type": "address"
        }
      ],
      "stateMutability": "view",
      "type": "function"
    },
    {
      "inputs": [
        {
          "internalType": "uint256",
          "name": "tokenId",
          "type": "uint256"
        }
      ],
      "name": "pickRandomFirstWord",
      "outputs": [
        {
          "internalType": "string",
          "name": "",
          "type": "string"
        }
      ],
      "stateMutability": "view",
      "type": "function"
    },
    {
      "inputs": [
        {
          "internalType": "uint256",
          "name": "tokenId",
          "type": "uint256"
        }
      ],
      "name": "pickRandomSecondWord",
      "outputs": [
        {
          "internalType": "string",
          "name": "",
          "type": "string"
        }
      ],
      "stateMutability": "view",
      "type": "function"
    },
    {
      "inputs": [
        {
          "internalType": "uint256",
          "name": "tokenId",
          "type": "uint256"
        }
      ],
      "name": "pickRandomThirdWord",
      "outputs": [
        {
          "internalType": "string",
          "name": "",
          "type": "string"
        }
      ],
      "stateMutability": "view",
      "type": "function"
    },
    {
      "inputs": [
        {
          "internalType": "address",
          "name": "from",
          "type": "address"
        },
        {
          "internalType": "address",
          "name": "to",
          "type": "address"
        },
        {
          "internalType": "uint256",
          "name": "tokenId",
          "type": "uint256"
        }
      ],
      "name": "safeTransferFrom",
      "outputs": [],
      "stateMutability": "nonpayable",
      "type": "function"
    },
    {
      "inputs": [
        {
          "internalType": "address",
          "name": "from",
          "type": "address"
        },
        {
          "internalType": "address",
          "name": "to",
          "type": "address"
        },
        {
          "internalType": "uint256",
          "name": "tokenId",
          "type": "uint256"
        },
        {
          "internalType": "bytes",
          "name": "_data",
          "type": "bytes"
        }
      ],
      "name": "safeTransferFrom",
      "outputs": [],
      "stateMutability": "nonpayable",
      "type": "function"
    },
    {
      "inputs": [
        {
          "internalType": "address",
          "name": "operator",
          "type": "address"
        },
        {
          "internalType": "bool",
          "name": "approved",
          "type": "bool"
        }
      ],
      "name": "setApprovalForAll",
      "outputs": [],
      "stateMutability": "nonpayable",
      "type": "function"
    },
    {
      "inputs": [
        {
          "internalType": "bytes4",
          "name": "interfaceId",
          "type": "bytes4"
        }
      ],
      "name": "supportsInterface",
      "outputs": [
        {
          "internalType": "bool",
          "name": "",
          "type": "bool"
        }
      ],
      "stateMutability": "view",
      "type": "function"
    },
    {
      "inputs": [],
      "name": "symbol",
      "outputs": [
        {
          "internalType": "string",
          "name": "",
          "type": "string"
        }
      ],
      "stateMutability": "view",
      "type": "function"
    },
    {
      "inputs": [
        {
          "internalType": "uint256",
          "name": "tokenId",
          "type": "uint256"
        }
      ],
      "name": "tokenURI",
      "outputs": [
        {
          "internalType": "string",
          "name": "",
          "type": "string"
        }
      ],
      "stateMutability": "view",
      "type": "function"
    },
    {
      "inputs": [
        {
          "internalType": "address",
          "name": "from",
          "type": "address"
        },
        {
          "internalType": "address",
          "name": "to",
          "type": "address"
        },
        {
          "internalType": "uint256",
          "name": "tokenId",
          "type": "uint256"
        }
      ],
      "name": "transferFrom",
      "outputs": [],
      "stateMutability": "nonpayable",
      "type": "function"
    }
  ],
  "bytecode": "0x608060405260405180610160016040528061013381526020016200439261013391396008908051906020019062000038929190620004e1565b5060405180608001604052806040518060400160405280600581526020017f506f77657200000000000000000000000000000000000000000000000000000081525081526020016040518060400160405280600681526020017f456e65726779000000000000000000000000000000000000000000000000000081525081526020016040518060400160405280600881526020017f537472656e67746800000000000000000000000000000000000000000000000081525081526020016040518060400160405280600581526020017f466f72636500000000000000000000000000000000000000000000000000000081525081525060099060046200014092919062000572565b5060405180606001604052806040518060400160405280600781526020017f6d7573742062650000000000000000000000000000000000000000000000000081525081526020016040518060400160405280600681526020017f6d6179206265000000000000000000000000000000000000000000000000000081525081526020016040518060400160405280600981526020017f73686f756c642062650000000000000000000000000000000000000000000000815250815250600a9060036200020d929190620005d9565b5060405180608001604052806040518060400160405280600881526020017f646563726561736500000000000000000000000000000000000000000000000081525081526020016040518060400160405280600881526020017f696e63726561736500000000000000000000000000000000000000000000000081525081526020016040518060400160405280600481526020017f6e756c6c0000000000000000000000000000000000000000000000000000000081525081526020016040518060400160405280600481526020017f66756c6c00000000000000000000000000000000000000000000000000000000815250815250600b9060046200031592919062000572565b503480156200032357600080fd5b506040518060400160405280601081526020017f506f776572436f6e74726f6c6c4e4654000000000000000000000000000000008152506040518060400160405280600d81526020017f504f574552434f4e54524f4c4c000000000000000000000000000000000000008152508160009080519060200190620003a8929190620004e1565b508060019080519060200190620003c1929190620004e1565b5050506200040f6040518060400160405280601881526020017f54686973206973206d79204e465420636f6e74726163742e00000000000000008152506200041560201b6200113c1760201c565b620007fa565b620004b5816040516024016200042c91906200070e565b6040516020818303038152906040527f41304fac000000000000000000000000000000000000000000000000000000007bffffffffffffffffffffffffffffffffffffffffffffffffffffffff19166020820180517bffffffffffffffffffffffffffffffffffffffffffffffffffffffff8381831617835250505050620004b860201b60201c565b50565b60008151905060006a636f6e736f6c652e6c6f679050602083016000808483855afa5050505050565b828054620004ef9062000784565b90600052602060002090601f0160209004810192826200051357600085556200055f565b82601f106200052e57805160ff19168380011785556200055f565b828001600101855582156200055f579182015b828111156200055e57825182559160200191906001019062000541565b5b5090506200056e919062000640565b5090565b828054828255906000526020600020908101928215620005c6579160200282015b82811115620005c5578251829080519060200190620005b4929190620004e1565b509160200191906001019062000593565b5b509050620005d591906200065f565b5090565b8280548282559060005260206000209081019282156200062d579160200282015b828111156200062c5782518290805190602001906200061b929190620004e1565b5091602001919060010190620005fa565b5b5090506200063c91906200065f565b5090565b5b808211156200065b57600081600090555060010162000641565b5090565b5b8082111562000683576000818162000679919062000687565b5060010162000660565b5090565b508054620006959062000784565b6000825580601f10620006a95750620006ca565b601f016020900490600052602060002090810190620006c9919062000640565b5b50565b6000620006da8262000732565b620006e681856200073d565b9350620006f88185602086016200074e565b6200070381620007e9565b840191505092915050565b600060208201905081810360008301526200072a8184620006cd565b905092915050565b600081519050919050565b600082825260208201905092915050565b60005b838110156200076e57808201518184015260208101905062000751565b838111156200077e576000848401525b50505050565b600060028204905060018216806200079d57607f821691505b60208210811415620007b457620007b3620007ba565b5b50919050565b7f4e487b7100000000000000000000000000000000000000000000000000000000600052602260045260246000fd5b6000601f19601f8301169050919050565b613b88806200080a6000396000f3fe608060405234801561001057600080fd5b506004361061010b5760003560e01c806363c89f83116100a2578063b187301f11610071578063b187301f146102b6578063b88d4fde146102e6578063c575757a14610302578063c87b56dd14610332578063e985e9c5146103625761010b565b806363c89f831461024257806370a082311461024c57806395d89b411461027c578063a22cb4651461029a5761010b565b806323b872dd116100de57806323b872dd146101aa5780632de38d68146101c657806342842e0e146101f65780636352211e146102125761010b565b806301ffc9a71461011057806306fdde0314610140578063081812fc1461015e578063095ea7b31461018e575b600080fd5b61012a60048036038101906101259190612604565b610392565b6040516101379190612d47565b60405180910390f35b610148610474565b6040516101559190612d62565b60405180910390f35b61017860048036038101906101739190612656565b610506565b6040516101859190612cb7565b60405180910390f35b6101a860048036038101906101a391906125c8565b61058b565b005b6101c460048036038101906101bf91906124c2565b6106a3565b005b6101e060048036038101906101db9190612656565b610703565b6040516101ed9190612d62565b60405180910390f35b610210600480360381019061020b91906124c2565b61089f565b005b61022c60048036038101906102279190612656565b6108bf565b6040516102399190612cb7565b60405180910390f35b61024a610971565b005b6102666004803603810190610261919061245d565b610b58565b6040516102739190612ff2565b60405180910390f35b610284610c10565b6040516102919190612d62565b60405180910390f35b6102b460048036038101906102af919061258c565b610ca2565b005b6102d060048036038101906102cb9190612656565b610cb8565b6040516102dd9190612d62565b60405180910390f35b61030060048036038101906102fb9190612511565b610dd6565b005b61031c60048036038101906103179190612656565b610e38565b6040516103299190612d62565b60405180910390f35b61034c60048036038101906103479190612656565b610f56565b6040516103599190612d62565b60405180910390f35b61037c60048036038101906103779190612486565b6110a8565b6040516103899190612d47565b60405180910390f35b60007f80ac58cd000000000000000000000000000000000000000000000000000000007bffffffffffffffffffffffffffffffffffffffffffffffffffffffff1916827bffffffffffffffffffffffffffffffffffffffffffffffffffffffff1916148061045d57507f5b5e139f000000000000000000000000000000000000000000000000000000007bffffffffffffffffffffffffffffffffffffffffffffffffffffffff1916827bffffffffffffffffffffffffffffffffffffffffffffffffffffffff1916145b8061046d575061046c826111d5565b5b9050919050565b60606000805461048390613286565b80601f01602080910402602001604051908101604052809291908181526020018280546104af90613286565b80156104fc5780601f106104d1576101008083540402835291602001916104fc565b820191906000526020600020905b8154815290600101906020018083116104df57829003601f168201915b5050505050905090565b60006105118261123f565b610550576040517f08c379a000000000000000000000000000000000000000000000000000000000815260040161054790612f72565b60405180910390fd5b6004600083815260200190815260200160002060009054906101000a900473ffffffffffffffffffffffffffffffffffffffff169050919050565b6000610596826108bf565b90508073ffffffffffffffffffffffffffffffffffffffff168373ffffffffffffffffffffffffffffffffffffffff161415610607576040517f08c379a00000000000000000000000000000000000000000000000000000000081526004016105fe90612fb2565b60405180910390fd5b8073ffffffffffffffffffffffffffffffffffffffff166106266112ab565b73ffffffffffffffffffffffffffffffffffffffff16148061065557506106548161064f6112ab565b6110a8565b5b610694576040517f08c379a000000000000000000000000000000000000000000000000000000000815260040161068b90612eb2565b60405180910390fd5b61069e83836112b3565b505050565b6106b46106ae6112ab565b8261136c565b6106f3576040517f08c379a00000000000000000000000000000000000000000000000000000000081526004016106ea90612fd2565b60405180910390fd5b6106fe83838361144a565b505050565b60606000610737610713846116b1565b6040516020016107239190612c73565b60405160208183030381529060405261185e565b90506107786040518060400160405280600b81526020017f72616e6420736565643a2000000000000000000000000000000000000000000081525082611891565b600980549050816107899190613332565b90506107ca6040518060400160405280601181526020017f72616e6420666972737420776f72643a2000000000000000000000000000000081525082611891565b60098181548110610804577f4e487b7100000000000000000000000000000000000000000000000000000000600052603260045260246000fd5b90600052602060002001805461081990613286565b80601f016020809104026020016040519081016040528092919081815260200182805461084590613286565b80156108925780601f1061086757610100808354040283529160200191610892565b820191906000526020600020905b81548152906001019060200180831161087557829003601f168201915b5050505050915050919050565b6108ba83838360405180602001604052806000815250610dd6565b505050565b6000806002600084815260200190815260200160002060009054906101000a900473ffffffffffffffffffffffffffffffffffffffff169050600073ffffffffffffffffffffffffffffffffffffffff168173ffffffffffffffffffffffffffffffffffffffff161415610968576040517f08c379a000000000000000000000000000000000000000000000000000000000815260040161095f90612ef2565b60405180910390fd5b80915050919050565b600061097d600761192d565b9050600061098a82610703565b9050600061099783610cb8565b905060006109a484610e38565b905060008383836040516020016109bd93929190612b74565b604051602081830303815290604052905060006008826040516020016109e4929190612bbb565b6040516020818303038152906040529050610a336040518060400160405280601581526020017f0a2d2d2d2d2d2d2d2d2d2d2d2d2d2d2d2d2d2d2d2d000000000000000000000081525061113c565b610a3c8161113c565b610a7a6040518060400160405280601581526020017f2d2d2d2d2d2d2d2d2d2d2d2d2d2d2d2d2d2d2d2d0a000000000000000000000081525061113c565b6000610aae83610a898461193b565b604051602001610a9a929190612c2e565b60405160208183030381529060405261193b565b9050600081604051602001610ac39190612c95565b6040516020818303038152906040529050610ade3389611af9565b610ae88882611b17565b610b0b604051806060016040528060258152602001613aee602591398933611b8b565b610b156007611c2a565b7f928fff234f74154cc6eab51f2ba867996b29dd3797c7b0bc6626f4cccbf950893389604051610b46929190612d1e565b60405180910390a15050505050505050565b60008073ffffffffffffffffffffffffffffffffffffffff168273ffffffffffffffffffffffffffffffffffffffff161415610bc9576040517f08c379a0000000000000000000000000000000000000000000000000000000008152600401610bc090612ed2565b60405180910390fd5b600360008373ffffffffffffffffffffffffffffffffffffffff1673ffffffffffffffffffffffffffffffffffffffff168152602001908152602001600020549050919050565b606060018054610c1f90613286565b80601f0160208091040260200160405190810160405280929190818152602001828054610c4b90613286565b8015610c985780601f10610c6d57610100808354040283529160200191610c98565b820191906000526020600020905b815481529060010190602001808311610c7b57829003601f168201915b5050505050905090565b610cb4610cad6112ab565b8383611c40565b5050565b60606000610cec610cc8846116b1565b604051602001610cd89190612c0c565b60405160208183030381529060405261185e565b9050600a8054905081610cff9190613332565b9050600a8181548110610d3b577f4e487b7100000000000000000000000000000000000000000000000000000000600052603260045260246000fd5b906000526020600020018054610d5090613286565b80601f0160208091040260200160405190810160405280929190818152602001828054610d7c90613286565b8015610dc95780601f10610d9e57610100808354040283529160200191610dc9565b820191906000526020600020905b815481529060010190602001808311610dac57829003601f168201915b5050505050915050919050565b610de7610de16112ab565b8361136c565b610e26576040517f08c379a0000000000000000000000000000000000000000000000000000000008152600401610e1d90612fd2565b60405180910390fd5b610e3284848484611dad565b50505050565b60606000610e6c610e48846116b1565b604051602001610e589190612bea565b60405160208183030381529060405261185e565b9050600b8054905081610e7f9190613332565b9050600b8181548110610ebb577f4e487b7100000000000000000000000000000000000000000000000000000000600052603260045260246000fd5b906000526020600020018054610ed090613286565b80601f0160208091040260200160405190810160405280929190818152602001828054610efc90613286565b8015610f495780601f10610f1e57610100808354040283529160200191610f49565b820191906000526020600020905b815481529060010190602001808311610f2c57829003601f168201915b5050505050915050919050565b6060610f618261123f565b610fa0576040517f08c379a0000000000000000000000000000000000000000000000000000000008152600401610f9790612f52565b60405180910390fd5b6000600660008481526020019081526020016000208054610fc090613286565b80601f0160208091040260200160405190810160405280929190818152602001828054610fec90613286565b80156110395780601f1061100e57610100808354040283529160200191611039565b820191906000526020600020905b81548152906001019060200180831161101c57829003601f168201915b50505050509050600061104a611e09565b90506000815114156110605781925050506110a3565b60008251111561109557808260405160200161107d929190612b50565b604051602081830303815290604052925050506110a3565b61109e84611e20565b925050505b919050565b6000600560008473ffffffffffffffffffffffffffffffffffffffff1673ffffffffffffffffffffffffffffffffffffffff16815260200190815260200160002060008373ffffffffffffffffffffffffffffffffffffffff1673ffffffffffffffffffffffffffffffffffffffff16815260200190815260200160002060009054906101000a900460ff16905092915050565b6111d2816040516024016111509190612d62565b6040516020818303038152906040527f41304fac000000000000000000000000000000000000000000000000000000007bffffffffffffffffffffffffffffffffffffffffffffffffffffffff19166020820180517bffffffffffffffffffffffffffffffffffffffffffffffffffffffff8381831617835250505050611ec7565b50565b60007f01ffc9a7000000000000000000000000000000000000000000000000000000007bffffffffffffffffffffffffffffffffffffffffffffffffffffffff1916827bffffffffffffffffffffffffffffffffffffffffffffffffffffffff1916149050919050565b60008073ffffffffffffffffffffffffffffffffffffffff166002600084815260200190815260200160002060009054906101000a900473ffffffffffffffffffffffffffffffffffffffff1673ffffffffffffffffffffffffffffffffffffffff1614159050919050565b600033905090565b816004600083815260200190815260200160002060006101000a81548173ffffffffffffffffffffffffffffffffffffffff021916908373ffffffffffffffffffffffffffffffffffffffff160217905550808273ffffffffffffffffffffffffffffffffffffffff16611326836108bf565b73ffffffffffffffffffffffffffffffffffffffff167f8c5be1e5ebec7d5bd14f71427d1e84f3dd0314c0f7b2291e5b200ac8c7c3b92560405160405180910390a45050565b60006113778261123f565b6113b6576040517f08c379a00000000000000000000000000000000000000000000000000000000081526004016113ad90612e92565b60405180910390fd5b60006113c1836108bf565b90508073ffffffffffffffffffffffffffffffffffffffff168473ffffffffffffffffffffffffffffffffffffffff161480611403575061140281856110a8565b5b8061144157508373ffffffffffffffffffffffffffffffffffffffff1661142984610506565b73ffffffffffffffffffffffffffffffffffffffff16145b91505092915050565b8273ffffffffffffffffffffffffffffffffffffffff1661146a826108bf565b73ffffffffffffffffffffffffffffffffffffffff16146114c0576040517f08c379a00000000000000000000000000000000000000000000000000000000081526004016114b790612e12565b60405180910390fd5b600073ffffffffffffffffffffffffffffffffffffffff168273ffffffffffffffffffffffffffffffffffffffff161415611530576040517f08c379a000000000000000000000000000000000000000000000000000000000815260040161152790612e52565b60405180910390fd5b61153b838383611ef0565b6115466000826112b3565b6001600360008573ffffffffffffffffffffffffffffffffffffffff1673ffffffffffffffffffffffffffffffffffffffff1681526020019081526020016000206000828254611596919061319c565b925050819055506001600360008473ffffffffffffffffffffffffffffffffffffffff1673ffffffffffffffffffffffffffffffffffffffff16815260200190815260200160002060008282546115ed91906130bb565b92505081905550816002600083815260200190815260200160002060006101000a81548173ffffffffffffffffffffffffffffffffffffffff021916908373ffffffffffffffffffffffffffffffffffffffff160217905550808273ffffffffffffffffffffffffffffffffffffffff168473ffffffffffffffffffffffffffffffffffffffff167fddf252ad1be2c89b69c2b068fc378daa952ba7f163c4a11628f55a4df523b3ef60405160405180910390a46116ac838383611ef5565b505050565b606060008214156116f9576040518060400160405280600181526020017f30000000000000000000000000000000000000000000000000000000000000008152509050611859565b600082905060005b6000821461172b578080611714906132e9565b915050600a826117249190613111565b9150611701565b60008167ffffffffffffffff81111561176d577f4e487b7100000000000000000000000000000000000000000000000000000000600052604160045260246000fd5b6040519080825280601f01601f19166020018201604052801561179f5781602001600182028036833780820191505090505b5090505b60008514611852576001826117b8919061319c565b9150600a856117c79190613332565b60306117d391906130bb565b60f81b81838151811061180f577f4e487b7100000000000000000000000000000000000000000000000000000000600052603260045260246000fd5b60200101907effffffffffffffffffffffffffffffffffffffffffffffffffffffffffffff1916908160001a905350600a8561184b9190613111565b94506117a3565b8093505050505b919050565b6000816040516020016118719190612b39565b6040516020818303038152906040528051906020012060001c9050919050565b61192982826040516024016118a7929190612d84565b6040516020818303038152906040527f9710a9d0000000000000000000000000000000000000000000000000000000007bffffffffffffffffffffffffffffffffffffffffffffffffffffffff19166020820180517bffffffffffffffffffffffffffffffffffffffffffffffffffffffff8381831617835250505050611ec7565b5050565b600081600001549050919050565b606060008251905060008114156119645760405180602001604052806000815250915050611af4565b6000600360028361197591906130bb565b61197f9190613111565b600461198b9190613142565b9050600060208261199c91906130bb565b67ffffffffffffffff8111156119db577f4e487b7100000000000000000000000000000000000000000000000000000000600052604160045260246000fd5b6040519080825280601f01601f191660200182016040528015611a0d5781602001600182028036833780820191505090505b5090506000604051806060016040528060408152602001613b13604091399050600181016020830160005b86811015611ab15760038101905062ffffff818a015116603f8160121c168401518060081b905060ff603f83600c1c1686015116810190508060081b905060ff603f8360061c1686015116810190508060081b905060ff603f831686015116810190508060e01b90508084526004840193505050611a38565b506003860660018114611acb5760028114611adb57611ae6565b613d3d60f01b6002830352611ae6565b603d60f81b60018303525b508484525050819450505050505b919050565b611b13828260405180602001604052806000815250611efa565b5050565b611b208261123f565b611b5f576040517f08c379a0000000000000000000000000000000000000000000000000000000008152600401611b5690612f12565b60405180910390fd5b80600660008481526020019081526020016000209080519060200190611b869291906122e9565b505050565b611c25838383604051602401611ba393929190612db4565b6040516020818303038152906040527fe3849f79000000000000000000000000000000000000000000000000000000007bffffffffffffffffffffffffffffffffffffffffffffffffffffffff19166020820180517bffffffffffffffffffffffffffffffffffffffffffffffffffffffff8381831617835250505050611ec7565b505050565b6001816000016000828254019250508190555050565b8173ffffffffffffffffffffffffffffffffffffffff168373ffffffffffffffffffffffffffffffffffffffff161415611caf576040517f08c379a0000000000000000000000000000000000000000000000000000000008152600401611ca690612e72565b60405180910390fd5b80600560008573ffffffffffffffffffffffffffffffffffffffff1673ffffffffffffffffffffffffffffffffffffffff16815260200190815260200160002060008473ffffffffffffffffffffffffffffffffffffffff1673ffffffffffffffffffffffffffffffffffffffff16815260200190815260200160002060006101000a81548160ff0219169083151502179055508173ffffffffffffffffffffffffffffffffffffffff168373ffffffffffffffffffffffffffffffffffffffff167f17307eab39ab6107e8899845ad3d59bd9653f200f220920489ca2b5937696c3183604051611da09190612d47565b60405180910390a3505050565b611db884848461144a565b611dc484848484611f55565b611e03576040517f08c379a0000000000000000000000000000000000000000000000000000000008152600401611dfa90612df2565b60405180910390fd5b50505050565b606060405180602001604052806000815250905090565b6060611e2b8261123f565b611e6a576040517f08c379a0000000000000000000000000000000000000000000000000000000008152600401611e6190612f92565b60405180910390fd5b6000611e74611e09565b90506000815111611e945760405180602001604052806000815250611ebf565b80611e9e846116b1565b604051602001611eaf929190612b50565b6040516020818303038152906040525b915050919050565b60008151905060006a636f6e736f6c652e6c6f679050602083016000808483855afa5050505050565b505050565b505050565b611f0483836120ec565b611f116000848484611f55565b611f50576040517f08c379a0000000000000000000000000000000000000000000000000000000008152600401611f4790612df2565b60405180910390fd5b505050565b6000611f768473ffffffffffffffffffffffffffffffffffffffff166122c6565b156120df578373ffffffffffffffffffffffffffffffffffffffff1663150b7a02611f9f6112ab565b8786866040518563ffffffff1660e01b8152600401611fc19493929190612cd2565b602060405180830381600087803b158015611fdb57600080fd5b505af192505050801561200c57506040513d601f19601f82011682018060405250810190612009919061262d565b60015b61208f573d806000811461203c576040519150601f19603f3d011682016040523d82523d6000602084013e612041565b606091505b50600081511415612087576040517f08c379a000000000000000000000000000000000000000000000000000000000815260040161207e90612df2565b60405180910390fd5b805181602001fd5b63150b7a0260e01b7bffffffffffffffffffffffffffffffffffffffffffffffffffffffff1916817bffffffffffffffffffffffffffffffffffffffffffffffffffffffff1916149150506120e4565b600190505b949350505050565b600073ffffffffffffffffffffffffffffffffffffffff168273ffffffffffffffffffffffffffffffffffffffff16141561215c576040517f08c379a000000000000000000000000000000000000000000000000000000000815260040161215390612f32565b60405180910390fd5b6121658161123f565b156121a5576040517f08c379a000000000000000000000000000000000000000000000000000000000815260040161219c90612e32565b60405180910390fd5b6121b160008383611ef0565b6001600360008473ffffffffffffffffffffffffffffffffffffffff1673ffffffffffffffffffffffffffffffffffffffff168152602001908152602001600020600082825461220191906130bb565b92505081905550816002600083815260200190815260200160002060006101000a81548173ffffffffffffffffffffffffffffffffffffffff021916908373ffffffffffffffffffffffffffffffffffffffff160217905550808273ffffffffffffffffffffffffffffffffffffffff16600073ffffffffffffffffffffffffffffffffffffffff167fddf252ad1be2c89b69c2b068fc378daa952ba7f163c4a11628f55a4df523b3ef60405160405180910390a46122c260008383611ef5565b5050565b6000808273ffffffffffffffffffffffffffffffffffffffff163b119050919050565b8280546122f590613286565b90600052602060002090601f016020900481019282612317576000855561235e565b82601f1061233057805160ff191683800117855561235e565b8280016001018555821561235e579182015b8281111561235d578251825591602001919060010190612342565b5b50905061236b919061236f565b5090565b5b80821115612388576000816000905550600101612370565b5090565b600061239f61239a84613032565b61300d565b9050828152602081018484840111156123b757600080fd5b6123c2848285613244565b509392505050565b6000813590506123d981613a91565b92915050565b6000813590506123ee81613aa8565b92915050565b60008135905061240381613abf565b92915050565b60008151905061241881613abf565b92915050565b600082601f83011261242f57600080fd5b813561243f84826020860161238c565b91505092915050565b60008135905061245781613ad6565b92915050565b60006020828403121561246f57600080fd5b600061247d848285016123ca565b91505092915050565b6000806040838503121561249957600080fd5b60006124a7858286016123ca565b92505060206124b8858286016123ca565b9150509250929050565b6000806000606084860312156124d757600080fd5b60006124e5868287016123ca565b93505060206124f6868287016123ca565b925050604061250786828701612448565b9150509250925092565b6000806000806080858703121561252757600080fd5b6000612535878288016123ca565b9450506020612546878288016123ca565b935050604061255787828801612448565b925050606085013567ffffffffffffffff81111561257457600080fd5b6125808782880161241e565b91505092959194509250565b6000806040838503121561259f57600080fd5b60006125ad858286016123ca565b92505060206125be858286016123df565b9150509250929050565b600080604083850312156125db57600080fd5b60006125e9858286016123ca565b92505060206125fa85828601612448565b9150509250929050565b60006020828403121561261657600080fd5b6000612624848285016123f4565b91505092915050565b60006020828403121561263f57600080fd5b600061264d84828501612409565b91505092915050565b60006020828403121561266857600080fd5b600061267684828501612448565b91505092915050565b612688816131d0565b82525050565b612697816131e2565b82525050565b60006126a882613078565b6126b2818561308e565b93506126c2818560208601613253565b6126cb8161341f565b840191505092915050565b60006126e182613083565b6126eb818561309f565b93506126fb818560208601613253565b6127048161341f565b840191505092915050565b600061271a82613083565b61272481856130b0565b9350612734818560208601613253565b80840191505092915050565b6000815461274d81613286565b61275781866130b0565b945060018216600081146127725760018114612783576127b6565b60ff198316865281860193506127b6565b61278c85613063565b60005b838110156127ae5781548189015260018201915060208101905061278f565b838801955050505b50505092915050565b60006127cc60328361309f565b91506127d782613430565b604082019050919050565b60006127ef60258361309f565b91506127fa8261347f565b604082019050919050565b6000612812601c8361309f565b915061281d826134ce565b602082019050919050565b6000612835600a836130b0565b9150612840826134f7565b600a82019050919050565b600061285860248361309f565b915061286382613520565b604082019050919050565b600061287b60198361309f565b91506128868261356f565b602082019050919050565b600061289e600b836130b0565b91506128a982613598565b600b82019050919050565b60006128c1602c8361309f565b91506128cc826135c1565b604082019050919050565b60006128e4600d836130b0565b91506128ef82613610565b600d82019050919050565b60006129076001836130b0565b915061291282613639565b600182019050919050565b600061292a60388361309f565b915061293582613662565b604082019050919050565b600061294d602a8361309f565b9150612958826136b1565b604082019050919050565b600061297060298361309f565b915061297b82613700565b604082019050919050565b6000612993602e8361309f565b915061299e8261374f565b604082019050919050565b60006129b66002836130b0565b91506129c18261379e565b600282019050919050565b60006129d960208361309f565b91506129e4826137c7565b602082019050919050565b60006129fc60318361309f565b9150612a07826137f0565b604082019050919050565b6000612a1f602c8361309f565b9150612a2a8261383f565b604082019050919050565b6000612a42602f8361309f565b9150612a4d8261388e565b604082019050919050565b6000612a65600a836130b0565b9150612a70826138dd565b600a82019050919050565b6000612a886069836130b0565b9150612a9382613906565b606982019050919050565b6000612aab60218361309f565b9150612ab6826139a1565b604082019050919050565b6000612ace600a836130b0565b9150612ad9826139f0565b600a82019050919050565b6000612af1601d836130b0565b9150612afc82613a19565b601d82019050919050565b6000612b1460318361309f565b9150612b1f82613a42565b604082019050919050565b612b338161323a565b82525050565b6000612b45828461270f565b915081905092915050565b6000612b5c828561270f565b9150612b68828461270f565b91508190509392505050565b6000612b80828661270f565b9150612b8b826128fa565b9150612b97828561270f565b9150612ba2826128fa565b9150612bae828461270f565b9150819050949350505050565b6000612bc78285612740565b9150612bd3828461270f565b9150612bde826128d7565b91508190509392505050565b6000612bf582612828565b9150612c01828461270f565b915081905092915050565b6000612c1782612891565b9150612c23828461270f565b915081905092915050565b6000612c3982612a58565b9150612c45828561270f565b9150612c5082612a7b565b9150612c5c828461270f565b9150612c67826129a9565b91508190509392505050565b6000612c7e82612ac1565b9150612c8a828461270f565b915081905092915050565b6000612ca082612ae4565b9150612cac828461270f565b915081905092915050565b6000602082019050612ccc600083018461267f565b92915050565b6000608082019050612ce7600083018761267f565b612cf4602083018661267f565b612d016040830185612b2a565b8181036060830152612d13818461269d565b905095945050505050565b6000604082019050612d33600083018561267f565b612d406020830184612b2a565b9392505050565b6000602082019050612d5c600083018461268e565b92915050565b60006020820190508181036000830152612d7c81846126d6565b905092915050565b60006040820190508181036000830152612d9e81856126d6565b9050612dad6020830184612b2a565b9392505050565b60006060820190508181036000830152612dce81866126d6565b9050612ddd6020830185612b2a565b612dea604083018461267f565b949350505050565b60006020820190508181036000830152612e0b816127bf565b9050919050565b60006020820190508181036000830152612e2b816127e2565b9050919050565b60006020820190508181036000830152612e4b81612805565b9050919050565b60006020820190508181036000830152612e6b8161284b565b9050919050565b60006020820190508181036000830152612e8b8161286e565b9050919050565b60006020820190508181036000830152612eab816128b4565b9050919050565b60006020820190508181036000830152612ecb8161291d565b9050919050565b60006020820190508181036000830152612eeb81612940565b9050919050565b60006020820190508181036000830152612f0b81612963565b9050919050565b60006020820190508181036000830152612f2b81612986565b9050919050565b60006020820190508181036000830152612f4b816129cc565b9050919050565b60006020820190508181036000830152612f6b816129ef565b9050919050565b60006020820190508181036000830152612f8b81612a12565b9050919050565b60006020820190508181036000830152612fab81612a35565b9050919050565b60006020820190508181036000830152612fcb81612a9e565b9050919050565b60006020820190508181036000830152612feb81612b07565b9050919050565b60006020820190506130076000830184612b2a565b92915050565b6000613017613028565b905061302382826132b8565b919050565b6000604051905090565b600067ffffffffffffffff82111561304d5761304c6133f0565b5b6130568261341f565b9050602081019050919050565b60008190508160005260206000209050919050565b600081519050919050565b600081519050919050565b600082825260208201905092915050565b600082825260208201905092915050565b600081905092915050565b60006130c68261323a565b91506130d18361323a565b9250827fffffffffffffffffffffffffffffffffffffffffffffffffffffffffffffffff0382111561310657613105613363565b5b828201905092915050565b600061311c8261323a565b91506131278361323a565b92508261313757613136613392565b5b828204905092915050565b600061314d8261323a565b91506131588361323a565b9250817fffffffffffffffffffffffffffffffffffffffffffffffffffffffffffffffff048311821515161561319157613190613363565b5b828202905092915050565b60006131a78261323a565b91506131b28361323a565b9250828210156131c5576131c4613363565b5b828203905092915050565b60006131db8261321a565b9050919050565b60008115159050919050565b60007fffffffff0000000000000000000000000000000000000000000000000000000082169050919050565b600073ffffffffffffffffffffffffffffffffffffffff82169050919050565b6000819050919050565b82818337600083830152505050565b60005b83811015613271578082015181840152602081019050613256565b83811115613280576000848401525b50505050565b6000600282049050600182168061329e57607f821691505b602082108114156132b2576132b16133c1565b5b50919050565b6132c18261341f565b810181811067ffffffffffffffff821117156132e0576132df6133f0565b5b80604052505050565b60006132f48261323a565b91507fffffffffffffffffffffffffffffffffffffffffffffffffffffffffffffffff82141561332757613326613363565b5b600182019050919050565b600061333d8261323a565b91506133488361323a565b92508261335857613357613392565b5b828206905092915050565b7f4e487b7100000000000000000000000000000000000000000000000000000000600052601160045260246000fd5b7f4e487b7100000000000000000000000000000000000000000000000000000000600052601260045260246000fd5b7f4e487b7100000000000000000000000000000000000000000000000000000000600052602260045260246000fd5b7f4e487b7100000000000000000000000000000000000000000000000000000000600052604160045260246000fd5b6000601f19601f8301169050919050565b7f4552433732313a207472616e7366657220746f206e6f6e20455243373231526560008201527f63656976657220696d706c656d656e7465720000000000000000000000000000602082015250565b7f4552433732313a207472616e736665722066726f6d20696e636f72726563742060008201527f6f776e6572000000000000000000000000000000000000000000000000000000602082015250565b7f4552433732313a20746f6b656e20616c7265616479206d696e74656400000000600082015250565b7f54484952445f574f524400000000000000000000000000000000000000000000600082015250565b7f4552433732313a207472616e7366657220746f20746865207a65726f2061646460008201527f7265737300000000000000000000000000000000000000000000000000000000602082015250565b7f4552433732313a20617070726f766520746f2063616c6c657200000000000000600082015250565b7f5345434f4e445f574f5244000000000000000000000000000000000000000000600082015250565b7f4552433732313a206f70657261746f7220717565727920666f72206e6f6e657860008201527f697374656e7420746f6b656e0000000000000000000000000000000000000000602082015250565b7f3c2f746578743e3c2f7376673e00000000000000000000000000000000000000600082015250565b7f2000000000000000000000000000000000000000000000000000000000000000600082015250565b7f4552433732313a20617070726f76652063616c6c6572206973206e6f74206f7760008201527f6e6572206e6f7220617070726f76656420666f7220616c6c0000000000000000602082015250565b7f4552433732313a2062616c616e636520717565727920666f7220746865207a6560008201527f726f206164647265737300000000000000000000000000000000000000000000602082015250565b7f4552433732313a206f776e657220717565727920666f72206e6f6e657869737460008201527f656e7420746f6b656e0000000000000000000000000000000000000000000000602082015250565b7f45524337323155524953746f726167653a2055524920736574206f66206e6f6e60008201527f6578697374656e7420746f6b656e000000000000000000000000000000000000602082015250565b7f227d000000000000000000000000000000000000000000000000000000000000600082015250565b7f4552433732313a206d696e7420746f20746865207a65726f2061646472657373600082015250565b7f45524337323155524953746f726167653a2055524920717565727920666f722060008201527f6e6f6e6578697374656e7420746f6b656e000000000000000000000000000000602082015250565b7f4552433732313a20617070726f76656420717565727920666f72206e6f6e657860008201527f697374656e7420746f6b656e0000000000000000000000000000000000000000602082015250565b7f4552433732314d657461646174613a2055524920717565727920666f72206e6f60008201527f6e6578697374656e7420746f6b656e0000000000000000000000000000000000602082015250565b7f7b226e616d65223a202200000000000000000000000000000000000000000000600082015250565b7f222c20226465736372697074696f6e223a20224120686967686c79206163636c60008201527f61696d656420636f6c6c656374696f6e206f6620506f776572436f6e74726f6c60208201527f6c2e222c2022696d616765223a2022646174613a696d6167652f7376672b786d60408201527f6c3b6261736536342c0000000000000000000000000000000000000000000000606082015250565b7f4552433732313a20617070726f76616c20746f2063757272656e74206f776e6560008201527f7200000000000000000000000000000000000000000000000000000000000000602082015250565b7f46495253545f574f524400000000000000000000000000000000000000000000600082015250565b7f646174613a6170706c69636174696f6e2f6a736f6e3b6261736536342c000000600082015250565b7f4552433732313a207472616e736665722063616c6c6572206973206e6f74206f60008201527f776e6572206e6f7220617070726f766564000000000000000000000000000000602082015250565b613a9a816131d0565b8114613aa557600080fd5b50565b613ab1816131e2565b8114613abc57600080fd5b50565b613ac8816131ee565b8114613ad357600080fd5b50565b613adf8161323a565b8114613aea57600080fd5b5056fe416e204e465420772f20494420257320686173206265656e206d696e74656420746f2025734142434445464748494a4b4c4d4e4f505152535455565758595a6162636465666768696a6b6c6d6e6f707172737475767778797a303132333435363738392b2fa2646970667358221220b07cca388d5f4535c305556604639d03dbb08fa25f7a6018a215c63bf9141d7564736f6c634300080400333c73766720786d6c6e733d27687474703a2f2f7777772e77332e6f72672f323030302f73766727207072657365727665417370656374526174696f3d27784d696e594d696e206d656574272076696577426f783d273020302033353020333530273e3c7374796c653e2e62617365207b2066696c6c3a20236462383530643b20666f6e742d66616d696c793a2073657269663b20666f6e742d73697a653a20323570783b207d3c2f7374796c653e3c726563742077696474683d273130302527206865696768743d2731303025272066696c6c3d272332303263343027202f3e3c7465787420783d273530252720793d273530252720636c6173733d27626173652720646f6d696e616e742d626173656c696e653d276d6964646c652720746578742d616e63686f723d276d6964646c65273e",
  "linkReferences": {},
  "deployedLinkReferences": {}
}